:020000040800F2
:100000000050002021020008290200082D020008EB
:10001000A1020008A5020008ED020008000000008F
:100020000000000000000000000000003503000890
:1000300039030008000000003D030008E90F000834
:100040005103000851030008510300085103000840
:100050005103000851030008510300085103000830
:100060005103000851030008510300085103000820
:100070005103000851030008510300085103000810
:100080005103000851030008510300085103000800
:1000900051030008510300085103000851030008F0
:1000A00051030008510300085103000851030008E0
:1000B00051030008510300085103000851030008D0
:1000C00051030008510300085103000851030008C0
:1000D00051030008510300085103000851030008B0
:1000E00051030008510300085103000800000000FC
:1000F0000000000000000000000000000000000000
:1001000000000000000000005FF808F100B583B0B7
:1001100000F0F8FD304B314A1360314A1360314B27
:10012000314A03E011681960043304322F498B42CD
:10013000F8D32A4B1A682E4B9A4204D1284B1A68DE
:100140002C4B9A4200D0FEE7234B2B4A13602B4ADC
:1001500013602B4B02E000221A600433294A9342B9
:10016000F9D3254B1B6813B9244B1B6803B1FEE779
:1001700000F0CCFD01A8694600F050FD224C234B55
:100180001C1BA410002504E01F4B53F82530984792
:100190000135AC42F8DC1E4C1E4B1C1BA410002584
:1001A00004E01B4B53F8253098470135AC42F8DC8E
:1001B0000198009900F0A8FF0546174C174B1C1B2F
:1001C000A41004E0013C144B53F824309847002C51
:1001D000F8DC284600F0F4FCBABADECA00000020C1
:1001E0009800002000000020CC1D00089C0000208A
:1001F00078563412325476989C0000203C0100203E
:100200009C00002040010020540300085403000813
:100210005403000854030008540300085403000862
:1002200008B5FFF773FF00BF00BEFEE71EF0040F26
:100230000CBFEFF30880EFF309807146414A104785
:100240002DE9F04182B004468846134B5E6B9D6BEE
:100250009F6A1B6B13F0020F0DD00F4BDB6A002B54
:1002600009DA4BF6AB6100F0CDFD20B14FF0004252
:10027000094BDA620CE0094800F0E4FCCDF800809C
:100280002046394632462B4600F044FD00BEFEE7CC
:1002900002B0BDE8F08100BF00ED00E0241D0008C1
:1002A00000BEFEE71EF0040F0CBFEFF30880EFF373
:1002B00009807146244A10472DE9F04182B0074673
:1002C0008846084B5D6B9C6B9E6A074800F0BAFC41
:1002D000CDF80080384631462A46234600F01AFD04
:1002E00000BEFEE700ED00E0341D00081EF0040F24
:1002F0000CBFEFF30880EFF309807146134A1047F3
:100300002DE9F04182B007468846084B5D6B9C6B37
:100310009E6A074800F096FCCDF8008038463146CA
:100320002A46234600F0F6FC00BEFEE700ED00E0A2
:10033000401D000800BEFEE700BEFEE700BEFEE76F
:100340007047000041020008B902000801030008DC
:0403500000BEFEE706
:10035400F8B505460C46474B98421BD003F580631D
:10036400984217D003F58063984213D003F5806355
:1003740098420FD003F5806398420BD003F5806355
:10038400984207D003F58063984203D03A48B221DB
:1003940000F04AFCE3788BB1042B0FD0282B0DD04E
:1003A400482B0BD0142B09D0102B07D01C2B05D0B5
:1003B400182B03D03048B32100F036FC23881BB936
:1003C4002D48B42100F030FCE37803F00F063046EA
:1003D40013F0100F0AD0A378013BDBB2022B03D930
:1003E4002548BB2100F020FCA07830432378E3B1FA
:1003F4002E68002216E00123934021881940994277
:100404000FD197000F21B94026EA010600FA07F13F
:100414000E43E178282901D16B6102E0482900D11B
:100424002B610132072AE6D92E602388FF2B20D9BD
:100434006F6800211AE001F1080201239340228829
:100444001A409A4211D14FEA810E0F2202FA0EF697
:1004540027EA060200FA0EF71743E278282A00D1A9
:100464006B61E278482A00D12B6101310729E2D976
:100474006F60F8BD00080140C41A000838B504468E
:100484000D46431E012B40F29080042800F08D801D
:10049400082800F08A80634B984200F0868020335D
:1004A400984200F08280604B98427ED0803398421C
:1004B4007BD05E4B984278D003F58073984274D019
:1004C40003F58073984270D0594B98426DD003F570
:1004D4008063984269D0B0F5805F66D0B0F5EA1FBA
:1004E40063D0B0F5EB1F60D0B0F5004F5DD0514B39
:1004F40098425AD00133984257D00233984254D08C
:100504000433984251D0083398424ED0B0F1201FA2
:100514004BD03033984248D0474B984245D003F5EE
:100524008073984241D003F5007398423DD0434B09
:1005340098423AD003F57063984236D0B0F5011F63
:1005440033D03F4B984230D0013398422DD0023300
:1005540098422AD00433984227D00833984224D0B2
:100564001033984221D0203398421ED04033984211
:100574001BD08033984218D003F58073984214D06E
:1005840003F50073984210D003F5806398420CD0B1
:1005940003F50063984208D003F58053984204D0D1
:1005A400284840F22A2100F03FFB012D04D92548B8
:1005B40040F22B2100F038FB002C02DA224BDB69DD
:1005C40001E0214B5B68C4F30340A2B204F4401180
:1005D400B1F5401F07D123F070631B48416821F037
:1005E4007061416011E014F4801F06D00321814042
:1005F40023EA010343F0706307E0610D090102FA85
:1006040001F123EA010343F070631DB1610D090197
:100614008A401343002C02DA0B4AD36138BD0A4ADC
:10062400536038BD1000140040001600000118008B
:1006340000081A0001002000000130000011200011
:1006440001000080C41A00080000014010B4294BC6
:100654005B6803F00C03042B05D0082B06D013BBF6
:10066400254B036021E0244B03601EE0214A5368BC
:100674005268C3F38343023312F4803F04D11F4A08
:1006840002FB03F3036010E01A4A526812F4003FBD
:1006940004D01A4A02FB03F3036006E0164A02FB85
:1006A40003F3036001E0144B0360124A5368C3F37D
:1006B4000313134CE15CC9B20368CB404360516837
:1006C400C1F30221615CC9B223FA01F1816051686E
:1006D400C1F3C221615CC9B2CB40C3605268C2F3AA
:1006E400813208498A5CD2B2B3FBF2F303615DF84C
:1006F400044B70470010024000127A0000093D00CC
:10070400080000200400002038B504460D4620F4FB
:10071400AA6323F0070303B920B90C4840F22B4124
:1007240000F082FA012D04D9084840F22C4100F06F
:100734007BFA25B1064B5A6914435C6138BD044AFF
:10074400536923EA0404546138BD00BFF81A000851
:100754000010024038B504460D460E4B034003B961
:1007640020B90D4840F24A4100F05EFA012D04D947
:10077400094840F24B4100F057FA25B1074B9A69FA
:1007840014439C6138BD054A936923EA04049461C7
:1007940038BD00BF0200C0FFF81A00080010024074
:1007A40038B504460D460E4B184200D120B90D4809
:1007B40040F2694100F038FA012D04D9094840F2A9
:1007C4006A4100F031FA25B1074BDA691443DC6160
:1007D40038BD054AD36923EA0404D46138BD00BF97
:1007E40000360181F81A000800100240024A536AD8
:1007F40043F08073536270470010024030B587B0F5
:1008040004460D46654B984213D0A3F574439842B1
:100814000FD003F5806398420BD003F580639842B0
:1008240007D003F58063984203D05D48B82100F0F7
:10083400FBF92B68013B5B4A934203D95848B92121
:1008440000F0F2F9AB8833B1B3F5805F03D05448BC
:10085400BA2100F0E9F9EB8863B1B3F5805F09D000
:10086400B3F5005F06D0B3F5405F03D04C48BB211D
:1008740000F0DAF92B894BB1B3F5806F06D0B3F5EC
:10088400C06F03D04648BC2100F0CEF96A8922F03B
:100894000C039BB203B91AB94148BD2100F0C4F955
:1008A400AB8963B1B3F5807F09D0B3F5007F06D07F
:1008B400B3F5407F03D03A48BE2100F0B5F9AB89C7
:1008C40073B1364B9C420BD0A3F574439C4207D0C2
:1008D40003F580639C4203D03148C22100F0A4F99F
:1008E400238A23F440531B041B0CEA8813432382FA
:1008F400A3899BB223F4B05323F00C01A8882A895E
:100904006B89024313430B43A381A38A23F44073EB
:100914001B041B0CAA891343A38201A8FFF796FEAC
:100924001E4B9C4201D1049B00E0039BA28912B29E
:10093400002A08DA03EB830303EB830329684900E5
:10094400B3FBF1F107E003EB830303EB83032968B3
:100954008900B3FBF1F1144BA3FB012358090501F2
:10096400642300FB1313A28912B2002A09DAD90006
:1009740032310D4AA2FB0131C1F3421242EA0503AE
:1009840007E01B013233084AA2FB0323C3F34313DA
:100994002B439BB2238107B030BD00BF0038014018
:1009A400281B00081FAA44001F85EB5170B505469B
:1009B4000C46234B98420CD0A3F57443984208D0BC
:1009C40003F58063984204D01E484FF4997100F0F7
:1009D4002BF923883BB1B3F5006F04D0194840F2DA
:1009E400331100F021F963883BB1B3F5806F04D073
:1009F40014484FF49A7100F017F9A3883BB1B3F58A
:100A0400007F04D00F4840F2351100F00DF9E3885F
:100A14003BB1B3F5807F04D00A484FF49B7100F0DA
:100A240003F92B8A23F470631B041B0C268861884A
:100A3400A288E08831430A43024313432B8270BDEA
:100A440000380140281B0008002303804380838072
:100A5400C380704738B504460D46164B984214D0EF
:100A6400A3F57443984210D003F5806398420CD0E8
:100A740003F58063984208D003F58063984204D05C
:100A84000D484FF4B17100F0CFF8012D04D90A4894
:100A940040F2631100F0C8F82DB1A3899BB243F46E
:100AA4000053A38138BDA38923F400531B041B0CFA
:100AB400A38138BD00380140281B000838B504461E
:100AC4000D46124B984214D0A3F57443984210D0AB
:100AD40003F5806398420CD003F58063984208D0F4
:100AE40003F58063984204D0094840F25F2100F086
:100AF4009BF8B5F5007F04D305484FF4187100F056
:100B040093F8C5F30805A58038BD00BF003801403F
:100B1400281B000838B505460C46264B984214D0CD
:100B2400A3F57443984210D003F5806398420CD027
:100B340003F58063984208D003F58063984204D09B
:100B44001D4840F2863100F06FF8012C18D0802C3B
:100B540016D0402C14D0202C12D0102C10D0B4F568
:100B6400807F0DD0B4F5007F0AD0082C08D0042C67
:100B740006D0022C04D0104840F2873100F054F81B
:100B8400B4F5007F0FD10B4B9D420CD0A3F57443F9
:100B94009D4208D003F580639D4204D0064840F28C
:100BA4008B3100F041F82B881C4201D0012038BD64
:100BB400002038BD00380140281B0008FEE700BFB4
:100BC40008B5034800F056F80120FFF7F7FF00BF0F
:100BD4005C1B000808B50D4B1B6813B90C4A0B4B82
:100BE4001A600A4B1A68C31C23F00303134409490F
:100BF4008B4206D900F02CFB0C2303604FF0FF302E
:100C040008BD02490B60104608BD00BFA0000020CB
:100C140040010020004C002001230360014B0B60C5
:100C2400704700BF1800002008B503460A46034871
:100C3400194600F005F8FFF7C3FF00BFB01B00081A
:100C44000FB400B583B004AB53F8042B01930848E8
:100C5400802100F035FB011E03DD054800F04CF84F
:100C64000146084603B05DF804EB04B0704700BFCA
:100C7400A800002010B5044600F0F0FA0146204612
:100C840000F03AF80248012100F036F810BD00BF28
:100C9400A01C00082DE9F04385B004460F46435CD0
:100CA40013BB042528462146ABBE04461FE0354647
:100CB400102E28BF1025002306E014F8011B04AAF7
:100CC4001A4402F8101C0133AB42F6D304AA1344AD
:100CD400002203F8102CE9464FF004084046494628
:100CE400ABBE8046761B00E00E46002EDFD13846B0
:100CF40005B0BDE8F08300BF08B5FFF7CBFF08BD22
:100D040008B500F0F3F808BD08B500F017F908BD00
:100D1400F8B504460D4617461E462648FFF790FFD1
:100D240025482168FFF78CFF24486168FFF788FF96
:100D34002348A168FFF784FF2248E168FFF780FF9A
:100D440021482169FFF77CFF20486169FFF778FF9C
:100D54001F48A169FFF774FF1E48E169FFF770FFA0
:100D64001D48FFF76DFF1D482946FFF769FF1C4C1E
:100D7400E16A1C48FFF764FF216B1B48FFF760FF23
:100D8400E16B1A48FFF75CFF15F0800F03D0184899
:100D94003946FFF755FF15F4004F03D01548314687
:100DA400FFF74EFF1448FFF74BFF14480699FFF76F
:100DB40047FFF8BD081C0008181C0008281C000880
:100DC400381C0008481C0008581C0008681C00084F
:100DD400781C0008881C0008981C0008A41C000843
:100DE40000ED00E0B41C0008C41C0008D41C00087A
:100DF400E41C0008F41C0008041D00080C1D000875
:100E040083691A888A4207D10268033A012A05D8FD
:100E1400023383610120704700207047002070472F
:100E240082B00023019300932C4A136843F4803367
:100E340013602A4B1B6803F400330093019B0133B6
:100E44000193009B1BB9019BB3F5A06FF1D1234B18
:100E54001B6813F4003F02D00123009301E0002338
:100E64000093009B012B36D11D4B1A6842F01002EF
:100E74001A601A6822F003021A601A6842F0020229
:100E84001A60A3F580535A685A605A685A605A68BF
:100E940042F480625A605A6822F47C125A605A689A
:100EA40042F4E8125A601A6842F080721A600B4BDE
:100EB4001B6813F0007FFAD0084B5A6822F0030233
:100EC4005A605A6842F002025A60044B5B6803F0AD
:100ED4000C03082BF9D102B0704700BF0010024088
:100EE4000020024008B5FFF79BFF08BD08B5104B72
:100EF4001A6842F001021A6059680E4A0A405A60A0
:100F04001A6822F0847222F480321A601A6822F479
:100F140080221A605A6822F4FE025A604FF41F02BB
:100F24009A60FFF7DFFF4FF00062034B9A6008BD41
:100F3400001002400000FFF800ED00E01F4B5B686A
:100F440003F00C03042B06D0082B08D03BBB1C4A2F
:100F54001C4B1A6026E01A4A1A4B1A6022E0174A00
:100F640053685268C3F38343023312F4803F05D1BC
:100F7400154A02FB03F3134A136013E00F4A526845
:100F840012F4003F05D0104A02FB03F30D4A13602C
:100F940008E00B4A02FB03F30A4A136002E0084A22
:100FA400084B1A60054B5B68C3F30313074AD25C12
:100FB400D2B204490B68D3400B6070470010024062
:100FC40000127A003000002000093D0020000020BB
:100FD400034B1860024B1B68002BFBD1704700BF0A
:100FE40028010020034B1B681BB1024A1368013B14
:100FF400136070472801002000B587B001A8FFF7EF
:1010040025FB054A019BA2FB03239B0C034A1360A7
:1010140007B05DF804FB00BF83DE1B432C010020F6
:1010240010B586B02D4B0FCB06AC04E90F00FFF7CB
:1010340085FF2B480121FFF7B3FB44F61D20012156
:10104400FFF788FB01200146FFF75EFBFFF7CEFBAD
:101054004FF6FF73ADF8043000248DF807402148A3
:1010640001A9FFF775F9204801A9FFF771F91F4895
:1010740001A9FFF76DF91E480121FFF7FFF913E0FD
:1010840006AB03EBC40333F80C2CADF804200222A6
:101094008DF8062013F80A2C8DF8072053F8100C4D
:1010A40001A9FFF755F90134012CE9D9FFF7A4FF91
:1010B400104B1B68104AA2FB03239B09013BB3F1AD
:1010C400807F09D20D4A5360F0210D4B83F8231021
:1010D400002393600723136006B010BD501D000861
:1010E4000700400000080140000C014000100140CE
:1010F4000002300030000020D34D621010E000E008
:1011040000ED00E070B586B01F48FFF7B3FD002383
:1011140004938DF8143068464FF4E131012200F055
:1011240043F81A4C1A482168FFF78AFD2368194AC4
:10113400A2FB03239B09013BB3F1807F09D2164A2A
:101144005360F021154B83F8231000239360072389
:101154001360FFF765FF0024114D4FF400566E61D4
:1011640040F29A20FFF734FF2E614FF4A770FFF787
:101174002FFF6846612100F05DF8013409482146DB
:10118400FFF75EFDE8E700BF601D000830000020A7
:10119400741D0008D34D621010E000E000ED00E083
:1011A40000100140881D000830B589B00D4644F296
:1011B40005000121FFF7CEFA4FF40073ADF80430B7
:1011C40018238DF8073003238DF80630184C204679
:1011D40001A9FFF7BDF84FF48063ADF80430042390
:1011E4008DF8073020460DEB0301FFF7B1F802A894
:1011F400FFF72AFC04F54054204602A9FFF7D6FB6A
:1012040004950023ADF81430ADF81630ADF818305D
:101214000C22ADF81A20ADF81C30204604A9FFF7C3
:10122400EDFA20460121FFF715FC09B030BD00BFDF
:101234000008014008B50548FFF740FC0348402179
:10124400FFF768FC0028F9D008BD00BF0038014052
:10125400014B1868704700BF94000020034613F840
:10126400012B002AFBD1181A0138704730B5141E1F
:101274009BB0054604DA8B2303604FF0FF301CE07B
:101284004FF40272ADF80C200CBF224604F1FF3279
:10129400029205924FF6FF7200910491ADF80E2070
:1012A40069461A461E9B00F075F8431CBCBF8B238D
:1012B4002B6014B1009B00221A701BB030BD0000DB
:1012C40073B506460D4614460093044B3146186820
:1012D4002A462346FFF7CAFF02B070BD94000020DF
:1012E4002DE9F0478E688246B3420C4690469946F3
:1012F40040D38A8912F4906F3AD025680969022391
:101304006F1A656905EB450595FBF3F57B1C4B44AA
:101314009D4238BF1D4653050FD5294600F03AFBC0
:10132400064698B121693A4600F0CAFAA38923F423
:10133400906343F08003A38113E02A4600F080FB0E
:10134400064670B95046216900F0E0FA0C23CAF849
:101354000030A3894FF0FF3043F04003A381BDE880
:10136400F08726613E4426604E466561ED1BA5600C
:10137400B14500D24E4632462068414600F0ABFAF1
:10138400A36800209B1BA36023681E442660BDE85D
:10139400F08700002DE9F0439DB003938B89064646
:1013A4001C060D4690460CD50B6953B9402100F03C
:1013B400F1FA2860286110B90C233360CCE0402393
:1013C4006B610023099320238DF8293030238DF895
:1013D4002A3043461C4613F8012B1AB9B4EB08090A
:1013E4000FD002E0252AF5D1F8E7304629464246D7
:1013F4004B46FFF775FF013000F0A980099B4B4471
:1014040009932378002B00F0A28000234FF0FF32D1
:1014140004930793059206938DF853301A9304F1BD
:1014240001084446DFF8489121784846052200F037
:1014340039FA08F10108049B30B1C9EB000001221C
:10144400824013430493ECE7D80644BF20228DF86E
:101454005320190744BF2B228DF8532022782A2ABF
:1014640002D0079923460EE0039A0134111D126835
:101474000391002ABBBF524243F002030792079232
:10148400B8BF04930AE01C4622780133303A092A93
:1014940003D80A2000FB0121F5E7079123782E2BBE
:1014A4001AD163782A2B0AD1039B02341A1D1B68B4
:1014B4000392002BB8BF4FF0FF3305930CE0611C7F
:1014C40000220C4623780131303B092B03D80A2033
:1014D40000FB0232F5E70592DFF898802178404658
:1014E400032200F0DFF938B1049AC8EB000040236E
:1014F400834013430493013421781A48062204F1EB
:1015040001088DF8281000F0CDF988B1164B33B9D5
:10151400039B073323F007030833039313E003AB60
:101524000093304604A92A46104BAFF3008007E02D
:1015340003AB0093304604A92A460C4B00F092F802
:10154400421C074603D0099B3B44099341E7AB89FE
:101554005B0601D4099801E04FF0FF301DB0BDE8EF
:10156400F08300BFA01D000800000000E512000881
:10157400961D00089C1D00082DE9F84391461F465E
:101584008A680B6906469342B8BF1346C9F800300F
:1015940091F843200C46DDF8208012B10133C9F8DC
:1015A40000302368990642BFD9F800300233C9F8E5
:1015B4000030256815F006051CD094F843302268E5
:1015C400003318BF012392061FD5E118302081F89B
:1015D40043005A1C94F845102244023382F8431005
:1015E40013E03046394604F119020123C0470130A3
:1015F40007D00135E368D9F800209B1A9D42F0DB3F
:10160400DBE74FF0FF30BDE8F8833046394604F19C
:101614004302C0470130F4D02268D9F80050E3688F
:1016240002F00602042A08BF5D1B2269A3680CBFEE
:1016340025EAE57500259342C4BF9B1AED184FF0C7
:101644000009A9450ADA3046394604F11A02012391
:10165400C0470130D5D009F10109F2E70020BDE807
:10166400F88300002DE9FF410C461746227E984678
:101674006E2A06460A9B01F1430100F0B08012D89D
:10168400632A23D00AD8002A00F0BD80582A40F0EB
:10169400CC8084F84520DFF804E257E0642A1ED0A9
:1016A400692A1CD0C1E0732A00F0B18009D86F2ADE
:1016B4002ED0702A40F0B980226842F020022260C5
:1016C4003FE0752A24D0782A3BD0AEE01A6804F1B2
:1016D4004205111D1960136884F84230A9E020689E
:1016E4001A6810F0800F02D0101D186008E010F086
:1016F400400F02F10400186002D0B2F9003000E09B
:101704001368002B3EDA2D225B4284F8432039E033
:1017140020681A6810F0800F02D0101D186007E0CE
:1017240010F0400F02F10400186001D0138800E0AB
:101734001368227EDFF864E16F2A0CBF08220A22B4
:101744001CE07822DFF858E184F845202268186804
:1017540012F0800F00F104051D6003D1550601D578
:10176400038800E00368D00744BF42F020022260EF
:101774001BB9226822F0200222601022002084F883
:10178400430002E0DFF814E10A226568002DA8BFD7
:101794002068A560A4BF20F00400206003B965B1EF
:1017A4000D46B3FBF2F002FB10331EF8033005F8CC
:1017B400013D03460028F4D100E00D46082A0BD170
:1017C4002368DA0708D5236962689A42DEBF3023AA
:1017D40005F8013C05F1FF35491B21612EE0256820
:1017E4001A6815F0800F606903D0151D1D60136819
:1017F40008E015F0400F02F104051D60136801D0E4
:10180400188000E01860002323610D4616E01A6872
:10181400111D1960156800212846626800F042F81D
:1018240008B1401B6060636804E004F1420584F879
:10183400422001232361002384F84330CDF8008043
:101844003046214603AA3B46FFF796FE013002D1FB
:101854004FF0FF301FE0304639462A462369C0471F
:101864000130F5D023689B0705D4E068039B9842B8
:10187400B8BF18460FE00025E368039A9B1A9D42FF
:10188400F3DA3046394604F119020123C047013026
:10189400DED00135F0E704B0BDE8F081A71D0008F3
:1018A400B81D000810B5C9B202449042034605D0E1
:1018B4001C7801308C42F8D1184610BD002010BDB0
:1018C40010B5431E0A44914204D011F8014B03F8A9
:1018D400014FF8E710BD814210B501EB020301D3BB
:1018E400421E0BE09842FBD28118D21AD34204D094
:1018F40013F8014D01F8014DF8E710BD994204D0E9
:1019040011F8014B02F8014FF8E710BD30B500297A
:101914003CD051F8042C0B1F1D49002AB8BF9B185A
:101924000A680C4612B95A600B6030BD93420DD25E
:1019340019685818904201BF5A5852181A604268E0
:1019440023605A6030BD994203D80A465168002981
:10195400F9D1146815199D420AD11B682344D01883
:101964008842136012D10868034413604B680CE08A
:1019740002D90C23036030BD1C681819884201BFCA
:1019840008684968001918605960536030BD00BF89
:101994003401002070B5CC1C24F0030408340C2C52
:1019A40038BF0C24002C064603DA0C2333600020D5
:1019B40070BD8C42F9D3204A136810461946A1B170
:1019C4000A68121B0ED40B2A03D90A608B188C5098
:1019D4001FE08B420BBF5A684A6802605A6018BF06
:1019E4000B4616E00B464968E9E7144D2B681BB912
:1019F400304600F04BF828603046214600F046F8A7
:101A0400421C0346D1D0C51C25F0030585420AD1EA
:101A14001C6003F10B001A1D20F00700821A0AD083
:101A24005142995070BD3046E91A00F02FF8013048
:101A3400BBD02B46ECE770BD340100203001002000
:101A4400F8B5074615460E4621B91146BDE8F840DB
:101A5400FFF7A0BF1AB9FFF759FF2846F8BD00F0F9
:101A640025F8A8420ED238462946FFF793FF0446CC
:101A740050B131462A46FFF723FF38463146FFF777
:101A840045FF01E03046F8BD2046F8BD38B5064CA8
:101A94000023054608462360FFF79CF8431C02D147
:101AA400236803B12B6038BD3801002051F8040CC1
:101AB4000028BEBF091851F8043CC0180438704708
:101AC4002E2E2F73797374656D2F7372632F737455
:101AD4006D333266312D7374647065726970682F6A
:101AE40073746D3332663130785F6770696F2E635B
:101AF400000000002E2E2F73797374656D2F73729E
:101B0400632F73746D333266312D73746470657230
:101B14006970682F73746D3332663130785F726325
:101B2400632E63002E2E2F73797374656D2F737279
:101B3400632F73746D333266312D73746470657200
:101B44006970682F73746D3332663130785F7573E2
:101B54006172742E6300000061626F727428292C14
:101B64002065786974696E672E2E2E002C206675A8
:101B74006E6374696F6E3A200000000061737365D0
:101B84007274696F6E2022257322206661696C6508
:101B9400643A2066696C6520222573222C206C69C6
:101BA4006E65202564257325730A000061737365CF
:101BB40072745F706172616D2829206661696C6559
:101BC400643A2066696C6520222573222C206C6996
:101BD4006E652025640A00006D61696E2861726774
:101BE400633D25642C20617267763D5B0000000034
:101BF4002C20000022257322000000005D293B0AEE
:101C040000000000537461636B206672616D653A75
:101C14000A000000205230203D2020253038580A88
:101C240000000000205231203D2020253038580A81
:101C340000000000205232203D2020253038580A70
:101C440000000000205233203D2020253038580A5F
:101C54000000000020523132203D20253038580A3F
:101C640000000000204C52203D2020253038580A26
:101C740000000000205043203D2020253038580A21
:101C84000000000020505352203D20253038580ACF
:101C9400000000004653522F4641523A0A00000009
:101CA4002043465352203D2020253038580A000056
:101CB4002048465352203D2020253038580A000041
:101CC4002044465352203D2020253038580A000035
:101CD4002041465352203D2020253038580A000028
:101CE400204D4D464152203D20253038580A0000F1
:101CF4002042464152203D2020253038580A000019
:101D04004D6973630A000000204C522F4558435F0D
:101D140052455455524E3D20253038580A00000093
:101D24005B486172644661756C745D0A0000000072
:101D34005B4275734661756C745D0A005B55736133
:101D440067654661756C745D0A000000001001400F
:101D540000201000000801400080100048656C6CF1
:101D64006F2041524D20576F726C642100000000B7
:101D740053797374656D20636C6F636B3A202575BA
:101D8400487A0A005365636F6E642025750A000063
:101D94004300232D302B2000686C4C00656667459A
:101DA40046470030313233343536373839414243CF
:101DB4004445460030313233343536373839616280
:051DC400636465660088
:101DCC0078563412020406080000000001020304D5
:101DDC000102030406070809A4000020000000000B
:101DEC0000000000000000000102030406070809BF
:101DFC0000A24A04000000000000000000000000E7
:101E0C0000000000000000000000000000000000C6
:101E1C0000000000941D00080000000000000000FD
:101E2C0000000000000000000000000000000000A6
:101E3C000000000000000000000000000000000096
:101E4C000000000000000000000000000000000086
:0C1E5C0000000000340000203254769892
:040000050800010DE1
:00000001FF
